:100000000C942A000C9447000C9447000C94470071
:100010000C9447000C9447000C9447000C94470044
:100020000C9447000C9447000C9447000C94470034
:100030000C9447000C9447000C9447000C94470024
:100040000C9447000C9447000C9447000C94470014
:100050000C94470011241FBECFE5D8E0DEBFCDBF12
:1000600010E0A0E6B0E0E8E9F3E202C005900D92EE
:10007000AE36B107D9F710E0AEE6B0E001C01D9290
:10008000AF36B107E1F70E94F0100C94CA110C943E
:100090000000EF92FF920F931F937B018C0120E0F1
:1000A00030E040E05FE40E94490388238CF0C801FF
:1000B000B70120E030E040E05FE40E94C1010E940F
:1000C000A9039B01AC01205030404040504806C07D
:1000D000C801B7010E94A9039B01AC01B901CA0183
:1000E0001F910F91FF90EF900895A0E0B0E0EBE733
:1000F000F0E00C949311DC012B01FA019C919230F9
:1001000008F439C1EB018881823008F433C194309E
:1001100069F4843009F02FC111969C91119789815F
:10012000981709F428C1A5E6B0E025C1843009F488
:1001300021C18230A9F4923009F01DC19A01AD01AC
:1001400088E0EA010990AE01E90109929E0181501F
:10015000C1F7E201898111969C918923818308C1AD
:10016000923009F407C112962D903C901397EB0141
:100170008A819B811496AD90BD90CD90DC901797AD
:10018000EC80FD800E811F819101281B390BB90184
:1001900037FF04C066277727621B730B6032710537
:1001A0000CF061C0121613066CF537014801062EDB
:1001B00004C096948794779467940A94D2F721E0C8
:1001C00030E040E050E004C0220F331F441F551FB1
:1001D0006A95D2F721503040404050402E213F21B7
:1001E00040235123211531054105510521F021E01E
:1001F00030E040E050E079018A01E628F72808293C
:1002000019293CC0232BD1F1260E371E350146019A
:10021000062E04C096948794779467940A94D2F734
:1002200021E030E040E050E004C0220F331F441FC3
:10023000551F6A95D2F721503040404050402A2146
:100240003B214C215D21211531054105510521F04E
:1002500021E030E040E050E059016A01A628B728CB
:10026000C828D9280BC0821593052CF01C01AA249C
:10027000BB24650103C0EE24FF24870111969C91E5
:10028000D20111968C91981709F445C0992339F041
:10029000A80197012A193B094C095D0906C0A6016E
:1002A00095012E193F09400B510B57FD08C01182D3
:1002B0003382228224833583468357831DC081E0A5
:1002C00081833382228288279927DC01821B930B4A
:1002D000A40BB50B84839583A683B7830DC0220F2F
:1002E000331F441F551F24833583468357838281E0
:1002F000938101979383828324813581468157813D
:10030000DA01C9010197A109B1098F5F9F4FAF4F72
:10031000BF4328F30BC0918333822282EA0CFB1C7B
:100320000C1D1D1DE482F5820683178383E0808304
:10033000248135814681578157FF1AC0C901AA27F8
:1003400097FDA095BA2F81709070A070B0705695EF
:10035000479537952795822B932BA42BB52B848318
:100360009583A683B7838281938101969383828349
:10037000DF0101C0D201CD01CDB7DEB7E2E10C94BF
:10038000AF11A0E2B0E0E7ECF1E00C949F116983BB
:100390007A838B839C832D833E834F835887E9E048
:1003A000EE2EF12CEC0EFD1ECE010196B7010E943F
:1003B000D2048E010F5E1F4FCE010596B8010E9438
:1003C000D2048A8991E089278A8BC701B801AE01DE
:1003D000475E5F4F0E9475000E94FD03A096E6E015
:1003E0000C94BB11A0E2B0E0E8EFF1E00C949F1197
:1003F00069837A838B839C832D833E834F835887C5
:10040000F9E0EF2EF12CEC0EFD1ECE010196B701A6
:100410000E94D2048E010F5E1F4FCE010596B801D7
:100420000E94D204C701B801AE01475E5F4F0E942F
:1004300075000E94FD03A096E6E00C94BB11A0E2BB
:10044000B0E0E5E2F2E00C94931169837A838B8348
:100450009C832D833E834F835887CE010196BE0136
:10046000675F7F4F0E94D204CE010596BE016F5E8A
:100470007F4F0E94D2049985923088F0898982301A
:10048000C8F0943019F4823051F404C0843029F457
:10049000923081F485E690E0C6C0923049F420E0C5
:1004A0009A858A89981321E02A87CE010996BBC0D4
:1004B000823049F420E09A858A89981321E02A8BBA
:1004C000CE014196B0C02D843E844F8458886D88FB
:1004D0007E888F88988CEE24FF248701AA24BB2471
:1004E000650140E050E060E070E0E0E0F0E0C10174
:1004F00081709070892BE9F0E60CF71C081D191D1E
:100500009A01AB012A0D3B1D4C1D5D1D80E090E062
:10051000A0E0B0E0E614F7040805190520F481E036
:1005200090E0A0E0B0E0BA01A901480F591F6A1F8E
:100530007B1FAA0CBB1CCC1CDD1C97FE08C081E0F5
:1005400090E0A0E0B0E0A82AB92ACA2ADB2A3196B6
:10055000E032F10549F0660C771C881C991C569412
:10056000479437942794C3CFFA85EA892B893C892D
:100570008B859C85280F391F2E5F3F4F17C0CA01FE
:1005800081709070892B61F016950795F794E79428
:1005900080E090E0A0E0B0E8E82AF92A0A2B1B2BC3
:1005A00076956795579547952F5F3F4F77FDE7CF36
:1005B0000CC0440F551F661F771F17FD4160EE0CDE
:1005C000FF1C001F111F21503040403090E05907A0
:1005D00090E0690790E4790760F32B8F3C8FDB0193
:1005E000CA018F779070A070B07080349105A1051A
:1005F000B10561F447FD0AC0E114F10401051105DC
:1006000029F0405C5F4F6F4F7F4F40781A8EFE1786
:1006100011F081E08A8F4D8F5E8F6F8F78A383E01A
:10062000898FCE0149960E94FD03A096E2E10C94C9
:10063000AF11A8E1B0E0EFE1F3E00C949F11698302
:100640007A838B839C832D833E834F83588789E0F5
:10065000E82EF12CEC0EFD1ECE010196B7010E9492
:10066000D2048E010F5E1F4FCE010596B8010E9485
:10067000D2048985823040F08989823028F0C70110
:10068000B8010E944A0501C08FEF6896E6E00C941D
:10069000BB11A8E1B0E0EFE4F3E00C949F11698393
:1006A0007A838B839C832D833E834F83588789E095
:1006B000E82EF12CEC0EFD1ECE010196B7010E9432
:1006C000D2048E010F5E1F4FCE010596B8010E9425
:1006D000D2048985823040F08989823028F0C701B0
:1006E000B8010E944A0501C08FEF6896E6E00C94BD
:1006F000BB11A8E1B0E0EFE7F3E00C949F11698330
:100700007A838B839C832D833E834F83588789E034
:10071000E82EF12CEC0EFD1ECE010196B7010E94D1
:10072000D2048E010F5E1F4FCE010596B8010E94C4
:10073000D2048985823040F08989823028F0C7014F
:10074000B8010E944A0501C081E06896E6E00C9479
:10075000BB11ACE0B0E0EFEAF3E00C94A3116983C5
:100760007A838B839C83CE010196BE016B5F7F4FA2
:100770000E94D2048D81823061F1823050F1843048
:1007800021F48E81882351F12EC02F81388537FDC9
:1007900020C06E812F3131051CF06623F9F023C093
:1007A0008EE190E0821B930B29853A854B855C8511
:1007B00004C056954795379527958A95D2F76623B5
:1007C000B1F050954095309521953F4F4F4F5F4F79
:1007D0000EC020E030E040E050E009C02FEF3FEFD6
:1007E0004FEF5FE704C020E030E040E050E8B9019F
:1007F000CA012C96E2E00C94BF11DF92EF92FF92B7
:100800000F931F93FC01E480F58006811781D1804E
:100810008081823048F480E090E0A0E1B0E0E82AF6
:10082000F92A0A2B1B2BA5C0843009F49FC0823003
:1008300021F4EE24FF24870105C0E114F104010531
:10084000110519F4E0E0F0E096C0628173819FEF3A
:10085000623879070CF05BC022E83FEF261B370BAC
:100860002A3131052CF020E030E040E050E02AC091
:10087000B801A701022E04C0769567955795479554
:100880000A94D2F781E090E0A0E0B0E004C0880FC5
:10089000991FAA1FBB1F2A95D2F70197A109B10979
:1008A0008E219F21A023B1230097A105B10521F03E
:1008B00081E090E0A0E0B0E09A01AB01282B392B59
:1008C0004A2B5B2BDA01C9018F779070A070B07052
:1008D00080349105A105B10539F427FF09C0205CDA
:1008E0003F4F4F4F5F4F04C0215C3F4F4F4F5F4F13
:1008F000E0E0F0E02030A0E03A07A0E04A07A0E402
:100900005A0710F0E1E0F0E079018A0127C0603871
:10091000710564F5FB01E158FF4FD801C7018F77DE
:100920009070A070B07080349105A105B10539F4C4
:10093000E7FE0DC080E490E0A0E0B0E004C08FE3EB
:1009400090E0A0E0B0E0E80EF91E0A1F1B1F17FFA1
:1009500005C016950795F794E794319687E01695AC
:100960000795F794E7948A95D1F705C0EE24FF2404
:100970008701EFEFF0E06E2F679566276795902F60
:100980009F77D794DD24D7948E2F8695492F462BB9
:10099000582F5D29B701CA011F910F91FF90EF9069
:1009A000DF900895FC01DB01408151812281622F9B
:1009B0006F7770E0221F2227221F9381892F880FD3
:1009C000822B282F30E0991F9927991F11969C930D
:1009D000119721153105A9F54115510561057105DD
:1009E00011F482E037C082E89FEF13969C938E93B8
:1009F00012979A01AB0167E0220F331F441F551F66
:100A00006A95D1F783E08C930DC0220F331F441FEA
:100A1000551F12968D919C911397019713969C9355
:100A20008E931297203080E0380780E0480780E4FA
:100A3000580758F314962D933D934D935C93179755
:100A400008952F3F310579F4411551056105710570
:100A500019F484E08C93089564FF03C081E08C93C3
:100A600012C01C9210C02F57304013963C932E9307
:100A7000129783E08C9387E0440F551F661F771F02
:100A80008A95D1F7706414964D935D936D937C9322
:100A9000179708951F93DC01FB019C91923008F495
:100AA00047C08081823008F443C0943051F41196DD
:100AB0001C91843099F58181682F70E0611B710968
:100AC0003FC0843021F0923031F48230B9F181811D
:100AD000882389F12DC011961C9111978230F1F075
:100AE00081811817D9F412962D913C911397828128
:100AF00093818217930794F028173907BCF0149656
:100B00008D919D910D90BC91A02D248135814681C0
:100B10005781281739074A075B0718F4112341F05A
:100B20000AC082179307A407B50740F4112319F0F0
:100B300061E070E005C06FEF7FEF02C060E070E041
:100B4000CB011F910895DF93CF9300D000D000D048
:100B5000CDB7DEB78A836B834C8319828A81282FB5
:100B600030E03E832D838D819E818130910509F493
:100B700049C02D813E81223031052CF48D819E812A
:100B8000009771F0D5C02D813E812230310509F4E6
:100B90006BC08D819E818330910509F497C0C8C0D8
:100BA0008C818823A9F4AAE3B0E0EAE3F0E0808135
:100BB000482F8B81282F30E081E090E0022E02C088
:100BC000880F991F0A94E2F7809584238C93B2C012
:100BD0008C818130A1F4AAE3B0E0EAE3F0E0808107
:100BE000482F8B81282F30E081E090E0022E02C058
:100BF000880F991F0A94E2F7842B8C939BC081E0A5
:100C0000898398C08C818823A9F4A7E3B0E0E7E347
:100C1000F0E08081482F8B81282F30E081E090E048
:100C2000022E02C0880F991F0A94E2F78095842350
:100C30008C9380C08C818130A1F4A7E3B0E0E7E31E
:100C4000F0E08081482F8B81282F30E081E090E018
:100C5000022E02C0880F991F0A94E2F7842B8C930E
:100C600069C081E0898366C08C818823A9F4A4E3EC
:100C7000B0E0E4E3F0E08081482F8B81282F30E062
:100C800081E090E0022E02C0880F991F0A94E2F7DB
:100C9000809584238C934EC08C818130A1F4A4E391
:100CA000B0E0E4E3F0E08081482F8B81282F30E032
:100CB00081E090E0022E02C0880F991F0A94E2F7AB
:100CC000842B8C9337C081E0898334C08C81882346
:100CD000A9F4A1E3B0E0E1E3F0E08081482F8B814B
:100CE000282F30E081E090E0022E02C0880F991F8B
:100CF0000A94E2F7809584238C931CC08C81813008
:100D0000A1F4A1E3B0E0E1E3F0E08081482F8B8122
:100D1000282F30E081E090E0022E02C0880F991F5A
:100D20000A94E2F7842B8C9305C081E0898302C08A
:100D300081E08983898126960FB6F894DEBF0FBEC5
:100D4000CDBFCF91DF910895DF93CF9300D000D036
:100D500000D0CDB7DEB78A836B834C8319828A813A
:100D6000282F30E03E832D838D819E818130910537
:100D700009F449C02D813E81223031052CF48D814A
:100D80009E81009771F0D5C02D813E8122303105C2
:100D900009F46BC08D819E818330910509F497C061
:100DA000C8C08C818823A9F4ABE3B0E0EBE3F0E0AA
:100DB0008081482F8B81282F30E081E090E0022E47
:100DC00002C0880F991F0A94E2F7809584238C93C0
:100DD000B2C08C818130A1F4ABE3B0E0EBE3F0E092
:100DE0008081482F8B81282F30E081E090E0022E17
:100DF00002C0880F991F0A94E2F7842B8C939BC042
:100E000081E0898398C08C818823A9F4A8E3B0E0AD
:100E1000E8E3F0E08081482F8B81282F30E081E0EB
:100E200090E0022E02C0880F991F0A94E2F7809585
:100E300084238C9380C08C818130A1F4A8E3B0E03E
:100E4000E8E3F0E08081482F8B81282F30E081E0BB
:100E500090E0022E02C0880F991F0A94E2F7842BBB
:100E60008C9369C081E0898366C08C818823A9F452
:100E7000A5E3B0E0E5E3F0E08081482F8B81282FE7
:100E800030E081E090E0022E02C0880F991F0A94A2
:100E9000E2F7809584238C934EC08C818130A1F43D
:100EA000A5E3B0E0E5E3F0E08081482F8B81282FB7
:100EB00030E081E090E0022E02C0880F991F0A9472
:100EC000E2F7842B8C9337C081E0898334C08C8116
:100ED0008823A9F4A2E3B0E0E2E3F0E08081482FA8
:100EE0008B81282F30E081E090E0022E02C0880F35
:100EF000991F0A94E2F7809584238C931CC08C81FF
:100F00008130A1F4A2E3B0E0E2E3F0E08081482F79
:100F10008B81282F30E081E090E0022E02C0880F04
:100F2000991F0A94E2F7842B8C9305C081E0898392
:100F300002C081E08983898126960FB6F894DEBFCE
:100F40000FBECDBFCF91DF910895DF93CF93CDB783
:100F5000DEB727970FB6F894DEBF0FBECDBF8A83EA
:100F60006B835D834C8319828B81883008F0A5C028
:100F70008A81282F30E03F832E834E815F8141306C
:100F80005105C1F18E819F818230910534F42E810B
:100F90003F812115310571F08DC04E815F81423056
:100FA000510509F447C08E819F818330910509F472
:100FB00061C080C0E9E3F0E08081482F50E08B8180
:100FC000282F30E081E090E002C0880F991F2A9519
:100FD000E2F79A01282339238B81882F90E0A90119
:100FE00002C0559547958A95E2F7CA01EC81FD81CB
:100FF000808365C0E6E3F0E08081482F50E08B817C
:10100000282F30E081E090E002C0880F991F2A95D8
:10101000E2F79A01282339238B81882F90E0A901D8
:1010200002C0559547958A95E2F7CA01EC81FD818A
:10103000808345C0E3E3F0E08081482F50E08B815E
:10104000282F30E081E090E002C0880F991F2A9598
:10105000E2F79A01282339238B81882F90E0A90198
:1010600002C0559547958A95E2F7CA01EC81FD814A
:10107000808325C0E0E3F0E08081482F50E08B8141
:10108000282F30E081E090E002C0880F991F2A9558
:10109000E2F79A01282339238B81882F90E0A90158
:1010A00002C0559547958A95E2F7CA01EC81FD810A
:1010B000808305C081E0898302C081E089838981C2
:1010C00027960FB6F894DEBF0FBECDBFCF91DF914C
:1010D0000895DF93CF93CDB7DEB727970FB6F89477
:1010E000DEBF0FBECDBF8A836B835D834C831982C5
:1010F0008B81883008F0A5C08A81282F30E03F839B
:101100002E834E815F8141305105C1F18E819F81D7
:101110008230910534F42E813F812115310571F023
:101120008DC04E815F814230510509F447C08E81E8
:101130009F818330910509F461C080C0EAE3F0E04B
:101140008081482F50E08B81282F30E081E090E0B3
:1011500002C0880F991F2A95E2F79A0128233923A4
:101160008B81882F90E0A90102C0559547958A95FB
:10117000E2F7CA01EC81FD81808365C0E7E3F0E01E
:101180008081482F50E08B81282F30E081E090E073
:1011900002C0880F991F2A95E2F79A012823392364
:1011A0008B81882F90E0A90102C0559547958A95BB
:1011B000E2F7CA01EC81FD81808345C0E4E3F0E001
:1011C0008081482F50E08B81282F30E081E090E033
:1011D00002C0880F991F2A95E2F79A012823392324
:1011E0008B81882F90E0A90102C0559547958A957B
:1011F000E2F7CA01EC81FD81808325C0E1E3F0E0E4
:101200008081482F50E08B81282F30E081E090E0F2
:1012100002C0880F991F2A95E2F79A0128233923E3
:101220008B81882F90E0A90102C0559547958A953A
:10123000E2F7CA01EC81FD81808305C081E08983EA
:1012400002C081E08983898127960FB6F894DEBFBA
:101250000FBECDBFCF91DF910895DF93CF9300D024
:1012600000D000D0CDB7DEB78A836B834C83198260
:101270008B81883008F0D5C08A81282F30E03E83EA
:101280002D838D819E818130910509F443C02D818C
:101290003E81223031052CF48D819E81009771F0C2
:1012A000BDC02D813E812230310509F45FC08D81A2
:1012B0009E818330910509F485C0B0C08C81813056
:1012C000A1F4ABE3B0E0EBE3F0E08081482F8B8149
:1012D000282F30E081E090E0022E02C0880F991F95
:1012E0000A94E2F7842B8C939EC0ABE3B0E0EBE36F
:1012F000F0E08081482F8B81282F30E081E090E062
:10130000022E02C0880F991F0A94E2F78095842369
:101310008C9389C08C818130A1F4A8E3B0E0E8E32C
:10132000F0E08081482F8B81282F30E081E090E031
:10133000022E02C0880F991F0A94E2F7842B8C9327
:1013400072C0A8E3B0E0E8E3F0E08081482F8B8131
:10135000282F30E081E090E0022E02C0880F991F14
:101360000A94E2F7809584238C935DC08C81813050
:10137000A1F4A5E3B0E0E5E3F0E08081482F8B81A4
:10138000282F30E081E090E0022E02C0880F991FE4
:101390000A94E2F7842B8C9346C0A5E3B0E0E5E322
:1013A000F0E08081482F8B81282F30E081E090E0B1
:1013B000022E02C0880F991F0A94E2F780958423B9
:1013C0008C9331C08C818130A1F4A2E3B0E0E2E3E0
:1013D000F0E08081482F8B81282F30E081E090E081
:1013E000022E02C0880F991F0A94E2F7842B8C9377
:1013F0001AC0A2E3B0E0E2E3F0E08081482F8B81E5
:10140000282F30E081E090E0022E02C0880F991F63
:101410000A94E2F7809584238C9305C081E0898348
:1014200002C081E08983898126960FB6F894DEBFD9
:101430000FBECDBFCF91DF910895DF93CF9300D042
:1014400000D00F92CDB7DEB78A836B8319828A8171
:10145000282F30E03D832C838C819D818130910544
:10146000D1F02C813D81223031052CF48C819D817D
:10147000009761F01FC02C813D812230310581F041
:101480008C819D818330910581F014C0EAE3F0E006
:101490008B81808311C0E7E3F0E08B8180830CC0F7
:1014A000E4E3F0E08B81808307C0E1E3F0E08B812F
:1014B000808302C081E0898389810F900F900F9013
:1014C0000F900F90CF91DF910895DF93CF9300D0CD
:1014D00000D00F92CDB7DEB78A836B8319828A81E1
:1014E000282F30E03D832C838C819D8181309105B4
:1014F000D1F02C813D81223031052CF48C819D81ED
:10150000009761F01FC02C813D812230310581F0B0
:101510008C819D818330910581F014C0EBE3F0E074
:101520008B81808311C0E8E3F0E08B8180830CC065
:10153000E5E3F0E08B81808307C0E2E3F0E08B819C
:10154000808302C081E0898389810F900F900F9082
:101550000F900F90CF91DF910895DF93CF9300D03C
:1015600000D000D0CDB7DEB78A837C836B8319822D
:101570008A81282F30E03E832D838D819E818130AA
:101580009105E1F02D813E81223031052CF48D81D1
:101590009E81009761F027C02D813E812230310568
:1015A000A1F08D819E8183309105B1F01CC0E9E3EB
:1015B000F0E08081EB81FC81808317C0E6E3F0E0FE
:1015C0008081EB81FC81808310C0E3E3F0E08081C7
:1015D000EB81FC81808309C0E0E3F0E08081EB8156
:1015E000FC81808302C081E08983898126960FB6C1
:1015F000F894DEBF0FBECDBFCF91DF910895DF938A
:10160000CF9300D000D00F92CDB7DEB78A836B8323
:1016100019828A81282F30E03D832C838C819D8123
:1016200081309105D1F02C813D81223031052CF49F
:101630008C819D81009761F01FC02C813D812230FB
:10164000310581F08C819D818330910581F014C03A
:10165000EBE3F0E08B81808311C0E8E3F0E08B8165
:1016600080830CC0E5E3F0E08B81808307C0E2E378
:10167000F0E08B81808302C081E0898389810F90B3
:101680000F900F900F900F90CF91DF910895DF93FF
:10169000CF93CDB7DEB72F970FB6F894DEBF0FBE4E
:1016A000CDBF8F8782E067E041E00E94A40682E020
:1016B00065E040E00E94A40681E06F850E94650A13
:1016C00082E066E041E00E94A40680E090E0A0E0B5
:1016D000B0E48B879C87AD87BE876B857C858D85C5
:1016E0009E8520E030E04AEF54E40E941F02DC01B6
:1016F000CB018F839887A987BA876F817885898581
:101700009A8520E030E040E85FE30E947903882377
:101710002CF481E090E09E838D833FC06F817885BB
:1017200089859A8520E03FEF4FE757E40E9419032F
:1017300018164CF56B857C858D859E8520E030E004
:1017400040E251E40E941F02DC01CB01BC01CD014B
:101750000E944900DC01CB019E838D830FC088EC81
:1017600090E09C838B838B819C810197F1F79C8314
:101770008B838D819E8101979E838D838D819E8138
:10178000009769F714C06F81788589859A850E94D2
:101790004900DC01CB019E838D838D819E819A83DC
:1017A000898389819A810197F1F79A83898382E0FD
:1017B00066E040E00E94A4062F960FB6F894DEBFC4
:1017C0000FBECDBFCF91DF910895DF93CF93CDB7FB
:1017D000DEB72F970FB6F894DEBF0FBECDBF8F8751
:1017E00082E067E040E00E94A40682E065E040E01D
:1017F0000E94A40681E06F850E94650A82E066E08F
:1018000041E00E94A40680E090E0A0E0B0E48B8775
:101810009C87AD87BE876B857C858D859E8520E006
:1018200030E04AEF54E40E941F02DC01CB018F83B9
:101830009887A987BA876F81788589859A8520E0FE
:1018400030E040E85FE30E94790388232CF481E0D4
:1018500090E09E838D833FC06F81788589859A85CE
:1018600020E03FEF4FE757E40E94190318164CF5AC
:101870006B857C858D859E8520E030E040E251E4DB
:101880000E941F02DC01CB01BC01CD010E94490076
:10189000DC01CB019E838D830FC088EC90E09C839C
:1018A0008B838B819C810197F1F79C838B838D8146
:1018B0009E8101979E838D838D819E81009769F71C
:1018C00014C06F81788589859A850E944900DC0162
:1018D000CB019E838D838D819E819A8389838981AB
:1018E0009A810197F1F79A83898382E066E040E06C
:1018F0000E94A4062F960FB6F894DEBF0FBECDBF90
:10190000CF91DF910895DF93CF93CDB7DEB7E897FE
:101910000FB6F894DEBF0FBECDBF82E067E041E0B6
:101920000E94A30582E065E041E00E94A30582E0F9
:1019300066E041E00E94A30581E06FEF0E941D0A6E
:1019400080E090E0A0E2B2E48DAB9EABAFABB8AF6D
:101950006DA97EA98FA998AD20E030E04AEF54E44C
:101960000E941F02DC01CB0189AB9AABABABBCABD5
:1019700069A97AA98BA99CA920E030E040E85FE33F
:101980000E94790388232CF481E090E098AB8FA724
:101990003FC069A97AA98BA99CA920E03FEF4FE736
:1019A00057E40E94190318164CF56DA97EA98FA95A
:1019B00098AD20E030E040E251E40E941F02DC01DB
:1019C000CB01BC01CD010E944900DC01CB0198ABE9
:1019D0008FA70FC088EC90E09EA78DA78DA59EA530
:1019E0000197F1F79EA78DA78FA598A9019798ABAE
:1019F0008FA78FA598A9009769F714C069A97AA93C
:101A00008BA99CA90E944900DC01CB0198AB8FA750
:101A10008FA598A99CA78BA78BA59CA50197F1F7EB
:101A20009CA78BA788E30E94E50B80E090E0A0E0F4
:101A3000B0E48FA398A7A9A7BAA76FA178A589A595
:101A40009AA520E030E04AEF54E40E941F02DC0136
:101A5000CB018BA39CA3ADA3BEA36BA17CA18DA145
:101A60009EA120E030E040E85FE30E9479038823F4
:101A70002CF481E090E09AA389A33FC06BA17CA1E4
:101A80008DA19EA120E03FEF4FE757E40E9419038C
:101A900018164CF56FA178A589A59AA520E030E02D
:101AA00040E251E40E941F02DC01CB01BC01CD01E8
:101AB0000E944900DC01CB019AA389A30FC088ECE6
:101AC00090E098A38F8F8F8D98A10197F1F798A33D
:101AD0008F8F89A19AA101979AA389A389A19AA11D
:101AE000009769F714C06BA17CA18DA19EA10E94F3
:101AF0004900DC01CB019AA389A389A19AA19E8FF9
:101B00008D8F8D8D9E8D0197F1F79E8F8D8F8CE03F
:101B10000E94E50B80E090E0A0E0B0E4898F9A8F0E
:101B2000AB8FBC8F698D7A8D8B8D9C8D20E030E0E2
:101B30004AEF54E40E941F02DC01CB018D8B9E8B87
:101B4000AF8BB88F6D897E898F89988D20E030E0CA
:101B500040E85FE30E94790388232CF481E090E061
:101B60009C8B8B8B3FC06D897E898F89988D20E0FF
:101B70003FEF4FE757E40E94190318164CF5698DA3
:101B80007A8D8B8D9C8D20E030E040E251E40E9404
:101B90001F02DC01CB01BC01CD010E944900DC0128
:101BA000CB019C8B8B8B0FC088EC90E09A8B898B40
:101BB00089899A890197F1F79A8B898B8B899C89FE
:101BC00001979C8B8B8B8B899C89009769F714C03C
:101BD0006D897E898F89988D0E944900DC01CB0137
:101BE0009C8B8B8B8B899C89988B8F878F85988911
:101BF0000197F1F7988B8F8781E00E94E50B80E0D9
:101C000090E0A0E0B0E48B879C87AD87BE876B85B2
:101C10007C858D859E8520E030E04AEF54E40E946B
:101C20001F02DC01CB018F839887A987BA876F8158
:101C3000788589859A8520E030E040E85FE30E945E
:101C4000790388232CF481E090E09E838D833FC04C
:101C50006F81788589859A8520E03FEF4FE757E4CB
:101C60000E94190318164CF56B857C858D859E8521
:101C700020E030E040E251E40E941F02DC01CB0191
:101C8000BC01CD010E944900DC01CB019E838D8304
:101C90000FC088EC90E09C838B838B819C810197A3
:101CA000F1F79C838B838D819E8101979E838D8329
:101CB0008D819E81009769F714C06F817885898531
:101CC0009A850E944900DC01CB019E838D838D8122
:101CD0009E819A83898389819A810197F1F79A83FA
:101CE000898386E00E94E50BE8960FB6F894DEBF84
:101CF0000FBECDBFCF91DF910895DF93CF9300D07A
:101D00000F92CDB7DEB79B838A8319821AC0809168
:101D10006E00803119F480EC0E94E50B8981282F38
:101D200030E08A819B81FC01E20FF31F80810E94D9
:101D3000470B80916E008F5F80936E0089818F5F6B
:101D400089838981282F30E08A819B81FC01E20F01
:101D5000F31F80818823D9F60F900F900F90CF91B9
:101D6000DF910895DF93CF93CDB7DEB780EC0E946B
:101D7000E50BCF91DF910895DF93CF93CDB7DEB719
:101D800062970FB6F894DEBF0FBECDBF9A8B898BDA
:101D90001F86188A0EC08889282F30E089899A8981
:101DA000FC01E20FF31F80810E94470B88898F5F3F
:101DB000888B8889282F30E089899A89FC01E20F75
:101DC000F31F8081882339F78F859889692F0E94B6
:101DD0007311892F803119F480E80E94E50B88E1A6
:101DE0000E94E50B80E090E0AAEFB3E48B879C872C
:101DF000AD87BE876B857C858D859E8520E030E034
:101E00004AEF54E40E941F02DC01CB018F839887C4
:101E1000A987BA876F81788589859A8520E030E027
:101E200040E85FE30E94790388232CF481E090E08E
:101E30009E838D833FC06F81788589859A8520E058
:101E40003FEF4FE757E40E94190318164CF56B85D6
:101E50007C858D859E8520E030E040E251E40E9443
:101E60001F02DC01CB01BC01CD010E944900DC0155
:101E7000CB019E838D830FC088EC90E09C838B8385
:101E80008B819C810197F1F79C838B838D819E814F
:101E900001979E838D838D819E81009769F714C081
:101EA0006F81788589859A850E944900DC01CB0184
:101EB0009E838D838D819E819A83898389819A8176
:101EC0000197F1F79A8389838F858F5F8F877CCF06
:101ED000DF93CF93CDB7DEB762970FB6F894DEBF2E
:101EE0000FBECDBF9A8B898B1F86188A0EC088893A
:101EF000282F30E089899A89FC01E20FF31F808145
:101F00000E94470B88898F5F888B8889282F30E053
:101F100089899A89FC01E20FF31F8081882339F7B0
:101F20008F859889692F0E947311892F803119F448
:101F300080E80E94E50B8CE10E94E50B80E090E0D8
:101F4000AAEFB3E48B879C87AD87BE876B857C85C2
:101F50008D859E8520E030E04AEF54E40E941F0208
:101F6000DC01CB018F839887A987BA876F81788539
:101F700089859A8520E030E040E85FE30E9479039C
:101F800088232CF481E090E09E838D833FC06F8195
:101F9000788589859A8520E03FEF4FE757E40E94D6
:101FA000190318164CF56B857C858D859E8520E080
:101FB00030E040E251E40E941F02DC01CB01BC0191
:101FC000CD010E944900DC01CB019E838D830FC0AF
:101FD00088EC90E09C838B838B819C810197F1F747
:101FE0009C838B838D819E8101979E838D838D81C0
:101FF0009E81009769F714C06F81788589859A85DD
:102000000E944900DC01CB019E838D838D819E81DE
:102010009A83898389819A810197F1F79A838983C9
:102020008F858F5F8F877CCFDF93CF93CDB7DEB760
:1020300081E00E94E50B10926E00CF91DF91089530
:10204000DF93CF9300D0CDB7DEB789836A838981D0
:10205000813041F48A81883228F48A8180580E9434
:10206000E50B0FC08981823061F48A81882F90E06E
:10207000805C9F4F8736910524F48A8180540E94AA
:10208000E50B0F900F90CF91DF910895DF93CF93E1
:1020900000D0CDB7DEB789836A8389816A810E94C7
:1020A00020108FE00E94E50B0F900F90CF91DF91F1
:1020B0000895DF93CF93CDB7DEB728970FB6F89486
:1020C000DEBF0FBECDBF98878F838F8198859E839B
:1020D0008D8381E090E09C838B831A828D819E8129
:1020E0000097F9F480E30E94470B1BC08D819E810D
:1020F0002AE030E0B9010E947F11CB019E838D83DD
:102100008B819C819C01220F331FC901880F991F6D
:10211000880F991F820F931F9C838B838A818F5F07
:102120008A838D819E81009709F78B819C812AE0AB
:1021300030E0B9010E947F11CB019C838B838A819F
:1021400080518983898188230CF03EC019823CC06C
:102150008A81282F30E08981992787FD909528175B
:10216000390719F480EC0E94E50B8F8198852B814B
:102170003C81B9010E947F11CB01882F90E09E83A2
:102180008D838D81805D0E94470B2D813E818B81E7
:102190009C81A901489F9001499F300D589F300DA7
:1021A00011248F819885821B930B98878F838B8155
:1021B0009C812AE030E0B9010E947F11CB019C8311
:1021C0008B838A8181508A838A81882309F62896A5
:1021D0000FB6F894DEBF0FBECDBFCF91DF9108954B
:1021E000DF93CF93CDB7DEB72E970FB6F894DEBF4F
:1021F0000FBECDBF0E94830C80E690E00E947D0E52
:1022000080E090E0AAE7B4E48B879C87AD87BE8727
:102210006B857C858D859E8520E030E04AEF54E417
:102220000E941F02DC01CB018F839887A987BA87A0
:102230006F81788589859A8520E030E040E85FE30A
:102240000E94790388232CF481E090E09E838D83A3
:102250003FC06F81788589859A8520E03FEF4FE701
:1022600057E40E94190318164CF56B857C858D8503
:102270009E8520E030E040E251E40E941F02DC0134
:10228000CB01BC01CD010E944900DC01CB019E8342
:102290008D830FC088EC90E09C838B838B819C8125
:1022A0000197F1F79C838B838D819E8101979E839B
:1022B0008D838D819E81009769F79ECF6F81788590
:1022C00089859A850E944900DC01CB019E838D831C
:1022D0008D819E819A83898389819A810197F1F703
:1022E0009A83898389CF991B79E004C0991F961737
:1022F00008F0961B881F7A95C9F780950895AA1B48
:10230000BB1B51E107C0AA1FBB1FA617B70710F0E0
:10231000A61BB70B881F991F5A95A9F78095909512
:10232000BC01CD0108952F923F924F925F926F9220
:102330007F928F929F92AF92BF92CF92DF92EF9255
:10234000FF920F931F93CF93DF93CDB7DEB7CA1BD6
:10235000DB0B0FB6F894DEBF0FBECDBF09942A8801
:10236000398848885F846E847D848C849B84AA84A9
:10237000B984C884DF80EE80FD800C811B81AA8136
:10238000B981CE0FD11D0FB6F894DEBF0FBECDBF01
:08239000ED010895F894FFCF60
:0E2398004E6F75720000000000000000000093
:00000001FF
